:020000040000FA
:0600000000308A00072811
:0800080000308A001F28831656
:100010000313003088000F30860083120313061884
:100020001428FF3088001628003088000F28003080
:100030008800322032203220322032200F2809005E
:100040000730A1007C30A000A00B2428A10B24289D
:1000500000344130A100EE30A000A00B2D28A10BF0
:100060002D2800340330A2008C30A1005330A000B2
:10007000A00B3828A10B3828A20B382800340D30EB
:10008000A200BB30A100AA30A000A00B4528A10B04
:080090004528A20B45280034AD
:00000001FF
