:020000040000FA
:0600000001308A002029F6
:0800080001308A002B292B2096
:10001000031C0C280D2003140800820737343834E1
:100020003934413434343534363442343134323472
:100030003334433446343034453444348316F0305A
:1000400088008312F0308800E420E4200808F03CA7
:10005000031D242808008001FE308800D820081ED7
:100060004428800A881E4428800A081F4428800AE1
:10007000881F4428800A0F30000203184228031406
:10008000080D2D28031046280008031408008101DC
:10009000820183000A300302031C57288300820A6E
:1000A0000A300202031C4A288201810A4A28020EF1
:1000B000030708008615D8208611D8200800A30061
:1000C000F0398600A21886145A20D820A30E2308DF
:1000D000F0398600A21886145A20D820080083160A
:1000E0000301860083128601E420F030A200303044
:1000F00086005A20D8205A20D8205A2006125A208A
:1001000028305F2008305F2001305F2006305F20FC
:1001100080305F200C305F200800A2105F200800B4
:10012000A2145F200800A400F13C031D9A28EE30C1
:10013000A400A7282408D13C031DA128EE30A40068
:10014000A7282408BA3C031DA728DF30A4002408F0
:1001500008001430B0280130B0280230B028033035
:10016000A60020309020A60BB1280800A700F03987
:10017000031DBE2820309020C028A700270EC120D4
:1001800027080F39A600093C031CC9282608303E61
:10019000CB282608373E9028000008000F30840046
:1001A000840BD0280800A5308400840BD5280800D3
:1001B00006308400CF3085006400850BDC28840B7A
:1001C000DA28E2286400080037308400B530850062
:1001D00064006400850BE828840BE6280800EF30F3
:1001E0008400E83085006400F528F6286400850B5B
:1001F000F328840BF128FC28FD28FE286400080061
:10020000A5308400293085009330860064006400A6
:10021000860B0629850B0429840B02290800B730B8
:100220008400BE308500EF30860064001729860BFD
:100230001529850B1329840B11291E296400080038
:10024000831600308600083081008312F23081006E
:10025000A0308B002A29F2308100860A0B11090098
:02400E00723FFF
:00000001FF
