:020000040000FA
:0600000000308A00072811
:0800080000308A001C28831659
:1000100003130030880083120313FF3088002F2061
:100020002F202F202F202F20003088002F202F203E
:100030002F202F202F200D2809000730A1007C3011
:10004000A000A00B2128A10B212800344130A100E1
:10005000EE30A000A00B2A28A10B2A280034033080
:10006000A2008C30A1005330A000A00B3528A10BBA
:100070003528A20B352800340D30A200BB30A1007A
:10008000AA30A000A00B4228A10B4228A20B4228B4
:0200900000343A
:00000001FF
