:020000040000FA
:0600000000308A00072811
:0800080000308A003F28831636
:100010000313FF3086000030870000308800831211
:1000200003130608F039A3000310A30CA30CA30CC0
:10003000A30C230887002308003C031D2128AA30B5
:1000400033282308013C031D272855303328230873
:10005000023C031D2D280F3033282308033C031DC9
:100060003328F0303328061836288800112800304D
:10007000880052205220522052205220112809007C
:100080000730A1007C30A000A00B4428A10B44281D
:1000900000344130A100EE30A000A00B4D28A10B90
:1000A0004D2800340330A2008C30A1005330A00052
:1000B000A00B5828A10B5828A20B582800340D304B
:1000C000A200BB30A100AA30A000A00B6528A10BA4
:0800D0006528A20B652800342D
:00000001FF
