:020000040000FA
:0600000000308A00072811
:0800080000308A00B1281E201F
:100010001B283E3029202D20D10A510829200B28E9
:1000200010283E3029202D30292032202D20510843
:10003000292011281028613029201B28831603133A
:1000400040309900243098008312903098000800C6
:1000500050080C1E2928990008008C1E2D281A080B
:10006000D10008000A3029200D30292008002D2059
:10007000BF3E031C073E0A3ED200D20E2D20BF3EDB
:10008000031C073E0A3ED20452080800BF3E031C70
:10009000073E0A3E0800031753088D0083168C1391
:1000A0000C1483120C0803130800031783168C1812
:1000B0005728831254088D0053088C0083168C1324
:1000C0000C158B1355308D00AA308D008C148B17B6
:1000D0000C118C1869280313831208005614831717
:1000E000903084002D208000840A2D208000840A16
:1000F0002D208000840A2D208000FC00840A2D2001
:100100008000840AFC0B7F28831356100800D61445
:1001100083179030840000082920840A00082920D1
:10012000840A00082920840A0008FC002920840A87
:1001300000082920840AFC0B98288313D610080095
:10014000EF30B000E830B1006400A628A7286400B2
:10015000B10BA428B00BA228AD28AE28AF286400AC
:100160000800FF000308FE007E088300FF0E7F0EDC
:02017000090084
:02400E00723FFF
:00000001FF
