:020000040000FA
:100000003E2882073034313432343334343435349A
:10001000363437343834393430343134323433349C
:1000200034343534003482076134623463346434E8
:10003000653466346734683469346A346B346C34DC
:100040006D346E346F3470340034A101A214210871
:100050000120A220A10A2108103C031D2728C0303E
:10006000003E8038D020A10121081320A214A22034
:10007000A10A2108103C031D34280800B2204321A6
:100080004321432125204321432108300038D0203B
:10009000432108300438D020432108300738D020CD
:1000A000C030093E8038D0205428B2204321083087
:1000B0000038D02043210230D02008300438D0202E
:1000C00008300738D0204321103000380438D020C1
:1000D0004321103000380438D0204321103000383C
:1000E0000438D0204321103000380438D020432178
:1000F0004321103000380038D02043211030003820
:100100000038D0204321103008380438D020432153
:10011000103008380438D020432110300838003817
:10012000D020432108300438D020C030063E80382B
:10013000D020A2145330A2209C2886151B218611A2
:100140001B210800A300F0398600A21886149D2008
:100150001B21A30E2308F0398600A21886149D20C7
:100160001B210800831603018600831286012721C4
:10017000F030A200303086009D201B219D201B21E5
:100180009D2006129D202830A2200830A220013098
:10019000A2200630A2208030A2200C30A22008002D
:1001A000A210A2200800A214A2200800A400F13C82
:1001B000031DDD28EE30A400EA282408D13C031DED
:1001C000E428EE30A400EA282408BA3C031DEA28FB
:1001D000DF30A400240808002030F3280130F32881
:1001E0000230F3280330A7002030D320A70BF428D7
:1001F0000800A800F039031D01292030D32003296D
:10020000A800280E042128080F39A700093C031C68
:100210000C292708303E0E292708373ED328000036
:1002200008000F30A900A90B13290800A530A90068
:10023000A90B182908000630A900CF30AA006400D5
:10024000AA0B1F29A90B1D29252964000800373096
:10025000A900B530AA0064006400AA0B2B29A90BE1
:1002600029290800EF30A900E830AA0064003829E5
:1002700039296400AA0B3629A90B34293F294029C2
:10028000412964000800A530A9002930AA00933054
:10029000AB0064006400AB0B4929AA0B4729A90BEA
:1002A00045290800B730A900BE30AA00EF30AB00E6
:1002B00064005A29AB0B5829AA0B5629A90B5429BB
:0602C00061296400080042
:02400E00723FFF
:00000001FF
