:020000040000FA
:0600000000308A006228B6
:0800080000308A0007280900FE
:10001000082882072D342D342D342D342D342034EE
:100020005334463448344D3420342D342D342D345B
:100030002D342D3400342D342D34203442346934A1
:1000400065346E34763465346E34693464346F34B8
:10005000733420342D3400342034203420342034C0
:1000600020342034203420342034203420342034F0
:1000700020342034203420344D3465346E347334CD
:1000800061346A346534203465346E3420344D3440
:100090006F34763469346D34693465346E34743455
:1000A0006F34203420342034203420342034203461
:1000B00020342034203420342034203420342034A0
:1000C00020340034D92053302021463020214830BC
:1000D00020214D3020219E208720031C712858218B
:1000E000A2206C289E20AA20031C79285821A22037
:1000F0007828D9203C221B210A3063210B211B3098
:1001000063213C222C307321792873286300AA20B4
:10011000031C8C288D20031408008207013402344C
:1001200003340F340434053406340E3407340834F1
:1001300009340D340A3400340B340C348316F03097
:1001400088008312F0308800F1210808F03C031D7C
:10015000A4280800A601FE308800C121081EC3287B
:10016000A60A881EC328A60A081FC328A60A881F35
:10017000C328A60A0F3026020318C1280314080D4D
:10018000AC280310C528260803140800A701A801FD
:10019000A9000A302902031CD628A900A80A0A309F
:1001A0002802031CC928A801A70AC928280E290764
:1001B0000800831606100611861083128610061199
:1001C0000610F1213030F320DA213030F320AD2158
:1001D0003030F320F1212030F320F1211D211B21AB
:1001E000192107210800F039AA0006080F39AA04CE
:1001F00083160608AC000F30860583122A08860095
:100200000615061183162C08860083120800063096
:100210001E2980301E29C0301E2994301E29D4305A
:100220001E2980381E29C0381E2908301E290E308C
:100230001E290C301E2901301E29283006102229C3
:1002400006142A21AB00F3202B0EF320061CCD212F
:100250009E210800AA00F13C031D3129EE30AA00BE
:100260003E292A08D13C031D3829EE30AA003E2938
:100270002A08BA3C031D3E29DF30AA002A080800DC
:100280001030472901304729023047290330AD009B
:1002900020302021AD0B48290800AE00F039031DA5
:1002A0005529203020215729AE002E0E58212E0826
:1002B0000F39AD00093C031C60292D08303E62292E
:1002C0002D08373E2029AF000930AF02AF030030C0
:1002D0008A002F080920B000B008031972292021D4
:1002E000AF0A67290800AF000930AF02AF03B101C0
:1002F0001B2110303102031D82291C22FF210F30E7
:10030000AF02772900308A002F080920B000B0081A
:1003100003198E292021B10AAF0A792908000B3070
:10032000A1006400A10B9129640008001730A1000E
:100330006400A10B98299C29640008003D30A100AD
:100340006400A10BA029640008007B30A1006400B8
:10035000A10BA729AB2964000800F830A1006400B4
:10036000A10BAF29B329640008000730A100583061
:10037000A2006400A20BB929A10BB729BF29640010
:1003800008000630A100CF30A2006400A20BC529EE
:10039000A10BC329CB29640008000830A100F93063
:1003A000A20064006400A20BD129A10BCF29D82997
:1003B000640008002C30A1008D30A2006400A20B64
:1003C000DE29A10BDC29E429640008003730A100F4
:1003D000B530A20064006400A20BEA29A10BE82951
:1003E00008006E30A100B530A20064006400A20BCA
:1003F000F529A10BF329FC29FD2964000800C5306B
:10040000A100FD30A20064006400A20B032AA10B2E
:10041000012A0A2A0800EF30A100E830A200640097
:10042000112A122A6400A20B0F2AA10B0D2A182AE6
:10043000192A1A2A640008000E30A1004830A200D0
:10044000F730A3006400A30B222AA20B202AA10BE1
:100450001E2A2A2A640008001630A1008630A20055
:10046000D330A3006400A30B322AA20B302AA10BC5
:100470002E2A3A2A64000800A530A1002930A200E3
:100480009330A30064006400A30B422AA20B402A0D
:10049000A10B3E2A08002B30A100E230A200CD3093
:1004A000A30064006400A30B512AA20B4F2AA10BE6
:1004B0004D2A640008006A30A1008730A200F9309C
:1004C000A3006400632A6400A30B612AA20B5F2AC5
:1004D000A10B5D2A64000800B730A100BE30A20065
:1004E000EF30A3006400742AA30B722AA20B702AB7
:1004F000A10B6E2A7B2A640008009330A100F9301A
:10050000A200F830A3006400852A862A872A6400A6
:10051000A30B832AA20B812AA10B7F2A8F2A902A60
:0A052000912A922A932A6400080031
:02400E00723FFF
:00000001FF
